:100000000C9483000C94AB000C94AB000C94AB00EC
:100010000C94AB000C94AB000C94AB000C94AB00B4
:100020000C94AB000C94AB000C94AB000C94560DEC
:100030000C94AB000C94AB000C94AB000C94AB0094
:100040000C94A3120C94AB000C940F160C94411654
:100050000C94AB000C94AB000C94AB000C94AB0074
:100060000C9476110C94AB009F07CA079307D7072F
:10007000ED0711080B081108110811082F08B10726
:10008000D70BAF0CF70AAF0C750BAF0CD60A850A6D
:10009000AF0CAF0CAF0CAF0CEF0B8C09AF0C6E0AB2
:1000A000AF0CBB0A000000080002010000030407B7
:1000B0000000000000000000010204081020408041
:1000C00001020408102001020408102004040404A2
:1000D00004040404020202020202030303030303F2
:1000E0000000000023002600290000000000250079
:1000F00028002B0000000000240027002A00EE0446
:10010000DA088C10711611241FBECFEFD8E0DEBFC5
:10011000CDBF12E0A0E0B1E0ECE1F2E302C0059057
:100120000D92A032B107D9F725E0A0E2B2E001C0FC
:100130001D92A731B207E1F710E0C6E0D1E004C09C
:100140002297FE010E949317CE3FD107C9F70E9464
:1001500024170C940C190C940000CF92DF92EF92AC
:10016000FF920F931F93E82FF92F05C0015011093B
:100170002109310961F1908196239417B9F305C0E3
:10018000015011092109310911F19081962394132D
:10019000F7CFC12CD12CE12CF12C0AC08FEFC81A5B
:1001A000D80AE80AF80A0C151D052E053F0579F056
:1001B00080818623841791F36C2D7D2D8E2D9F2DAC
:1001C0001F910F91FF90EF90DF90CF90089560E026
:1001D00070E080E090E01F910F91FF90EF90DF9032
:1001E000CF9008950F931F93CF93DF93EC018B0172
:1001F00088819981DC01ED91FC916F770190F0810C
:10020000E02D099588819981DC01ED91FC91B8017F
:10021000660F672F661F770B6F770190F081E02DD7
:10022000DF91CF911F910F910994DC018D919C91E9
:10023000DC01ED91FC910190F081E02D60EF0994DB
:10024000DC018D919C91DC01ED91FC910190F0819C
:10025000E02D67EF0994CF93DF93EC0188819981BA
:10026000DC01ED91FC910190F081E02D69EF0995A1
:1002700088819981DC01ED91FC910190F081E02D64
:1002800062E0099588819981DC01ED91FC910190F2
:10029000F081E02D65E0DF91CF9109941F93CF931A
:1002A000DF93EC018A818823D9F1CE010E941501E8
:1002B00088819981DC01ED91FC910190F081E02D24
:1002C00069E7099588819981DC01ED91FC91AB8109
:1002D000BC810190F081E02D6C9109958881998114
:1002E000DC01ED91FC91AB81BC810190F081E02DAE
:1002F00011966C91099512E08A81181758F4EB81D8
:10030000FC81E10FF11D608170E0CE010E94F200DE
:100310001F5FF2CFCE01DF91CF911F910C9420018E
:10032000DF91CF911F910895CF92DF92EF92FF92CC
:100330000F931F93CF93DF938C01EB01C42ED22E2A
:100340006EE071E0CE010E94F2187C016FE270E075
:10035000CE010E94E718009739F46CE570E0CE01F9
:100360000E94E718009711F0EC012196E114F104C6
:1003700051F4FE0101900020E9F7EC1BEF5FD8017A
:100380001296EC9306C0EC1AFD0AE394E394F8018C
:10039000E282D80113968D919C9114970E9449187E
:1003A000F801E280F12CC70101960E94B117D80133
:1003B00014969C938E931397FC01EE0DFF1D1082F3
:1003C000FC01C082D18212964C9150E042505109FA
:1003D000BE010296DF91CF911F910F91FF90EF9098
:1003E000DF90CF900C94D818DC018D919C91DC01AA
:1003F000ED91FC910480F581E02D09940F931F93FA
:10040000CF93DF93FC012085213749F0293709F08C
:1004100049C0DF91CF911F910F910C944E01FC01C7
:10042000E556FF4F0190F081E02D309709F450C060
:10043000DC01A75BBF4F4D915C919A0121503109BE
:1004400037FD9A01B90175956795062F40E050E098
:1004500020E030E04E5F5F4F2017A0F4EC01C40FA6
:10046000D51F1F81DC01A20FB31F18961C9318978C
:10047000C885D0E8CD9F1019112418961C932F5FC2
:100480003F4FE8CFDC01A60FB11D17962C911797AF
:10049000222311F018961C920896DF91CF911F919C
:1004A0000F910994FC01E356FF4F0190F081E02D7C
:1004B000309771F0AC01475F5F4FDC01A75BBF4F26
:1004C0006C916150822FDF91CF911F910F91099410
:1004D000DF91CF911F910F9108950F931F93CF93A9
:1004E000DF93EC018A0188819981DC01ED91FC9117
:1004F0006F70606E0190F081E02D0995B801CE011A
:10050000DF91CF911F910F910C94F2000F931F93E5
:10051000CF93DF93EC018A0188819981DC01ED9111
:10052000FC916F7060690190F081E02D09958881E0
:100530009981DC01ED91FC91602F6F770190F08142
:10054000E02D099588819981DC01ED91FC91B8013C
:10055000660F672F661F770B0190F081E02DDF910A
:10056000CF911F910F910994CF92DF92EF92FF925A
:100570000F931F93CF93DF9300D01F92CDB7DEB7B9
:100580008C01F42E2A833B8369830E941501D801D4
:100590008D919C91DC01ED91FC910190F081E02D19
:1005A000698109952A81E22EC22E3B81D32E8C2DA2
:1005B0008E198F1540F4F60161916F0170E0C8014A
:1005C0000E94F200F4CFC8010F900F900F90DF91BE
:1005D000CF911F910F91FF90EF90DF90CF900C94EF
:1005E00020019A01613751F4FA0101900020E9F7E6
:1005F0003197E41BF50B4E2F0C94B4020895AB0118
:1006000061E70C94F102DC018D919C91DC01ED918C
:10061000FC910190F081E02D0994603DC1F028F437
:10062000603969F0603C79F00895643FA1F0653F5E
:10063000B1F0603EC9F4FC01E357FF4F13C0FC0169
:10064000E157FF4F0FC0FC01EF56FF4F0BC0FC01FD
:10065000ED56FF4F07C0FC01EB56FF4F03C0FC01F6
:10066000E956FF4F5183408308956F3F29F4FC0101
:10067000E756FF4F51834083089583569F4FFC01F7
:10068000518340830895860F911DFC01E55BFF4F68
:1006900080810895860F911DFC01E55BFF4F8081ED
:1006A0008F3709F040830895860F911D860F911DA5
:1006B000FC01EF59FF4F808191810895860F911DB4
:1006C000860F911DFC01EF59FF4F51834083089520
:1006D000FC0115821682178280E090E0DF01A80FEE
:1006E000B91F18961C92019680349105B9F7DF0165
:1006F000A85BBF4F1C9211961D921C92E756FF4FAC
:100700000190F081E02D309709F009940895FC01E3
:10071000E156FF4F1082FC011282148213820C9466
:100720006803CF93DF93EC01FC01E85BFF4F80810E
:100730008823A1F0673F31F41082CE01DF91CF9181
:100740000C94FE01FE01E75BFF4F80819181C80F91
:10075000D91F688701969183808398C08D818823F3
:1007600009F452C067FD50C081508D83FE01E80F2F
:10077000F11D608781118AC08E81882309F486C0AB
:10078000803DA1F140F4803981F0803CD9F5FE0133
:10079000EF56FF4F2EC0843FC9F0853FD9F0803E11
:1007A00089F5FE01E357FF4F03C0FE01E157FF4FFC
:1007B0000190F081E02D309729F18885698570E0FE
:1007C00090E8899F600D711D11241AC0FE01EB563F
:1007D000FF4F03C0FE01E956FF4F0190F081E02D6D
:1007E000309781F0688570E089850BC0FE01ED5679
:1007F000FF4F0190F081E02D309721F0688570E087
:100800008F8109951E8242C0862F603F28F4807F29
:1008100090E06F706F8301C090E0803F910549F1D7
:100820007CF4803C910509F124F480399105D9F0DC
:100830002DC0803D9105C9F0803E9105A1F026C0F4
:10084000893F9105E9F03CF49C01245F3109223095
:10085000310548F01BC08F3F9105C1F4CE01DF91F7
:10086000CF910C94680392E001C091E09D838E8348
:100870000DC081E08083C75BDF4F1982188206C0FC
:1008800080E292E0DF91CF910C942B01DF91CF9128
:100890000895CF93DF93EC0188819981DC01ED917C
:1008A000FC910680F781E02D09958F3FBFEF9B07F4
:1008B00031F0682FCE01DF91CF910C949103DF913D
:1008C000CF9108957F928F929F92AF92BF92CF92D5
:1008D000DF92EF92FF920F931F93CF93DF93762EC9
:1008E000EA01680110E0EE24D7FCE094FE2C4901F7
:1008F000AA2497FCA094BA2C212F30E02C173D0796
:1009000094F4C701B6010E941C1361E0872D0E9478
:100910006814C501B4010E941C1360E0872D0E9479
:1009200068141F5FE9CFDF91CF911F910F91FF9066
:10093000EF90DF90CF90BF90AF909F908F907F907F
:1009400008950F931F93CF93DF93EC01FC01E156C1
:10095000FF4F8081811126C061E08DE00E942F143D
:1009600002ED10E028E230E042E050E06DE0CE0120
:100970000E9462046AEF70E080E090E00E941C1325
:1009800028E230E045E050E06DE0CE010E946204D4
:100990006DE770E080E090E0DF91CF911F910F91C3
:1009A0000C941C13DF91CF911F910F910895CF9359
:1009B000DF93EC0126E086E794E00E94AD1586E720
:1009C00094E099838883CE010E94A104CE010E9405
:1009D0002B01CE01DF91CF910C944E0180E292E089
:1009E0000C9487030F931F93CF93DF931F92CDB780
:1009F000DEB7182F062F8EEF810F8231C0F4612FE2
:100A000080E292E079830E9443035981813079F436
:100A1000402F612F80E292E00E945E03602F812FC1
:100A20000F90DF91CF911F910F910C9468140F904C
:100A3000DF91CF911F910F9108951F93CF93DF9373
:100A4000182FEB018631A8F5682F80E292E00E9412
:100A500043038330F9F0843061F58EEF810F8231EA
:100A600080F4E12FF0E0E153FD4F408150E0CA01F6
:100A7000880F991F840F951FBE018B519D4F0E94B7
:100A8000F30EAE01612F80E292E0DF91CF911F91D2
:100A90000C945E03133041F08BEF810F823020F015
:100AA00087EF810F833068F7BE01812F0E94A71363
:100AB000E8CFDF91CF911F910895DF92EF92FF92DF
:100AC0000F931F93CF93DF93082FE62E833008F008
:100AD0008CC0182F110F110F110F185F173108F06C
:100AE00016E1C02FCC0FCC0FCC0FD0E0FF24F39435
:100AF000C11758F58EEF8C0F823120F56C2F80E2F4
:100B000092E00E944303813039F06C2F80E292E042
:100B10000E944303811116C0DD24D3948F2D8E21B2
:100B200009F4D12C6C2F80E292E00E9443038130C3
:100B300009F044C0DF294D2D50E06C2F80E292E097
:100B40000E945E03FF0CCF5FD3CF01110AC0DC7F90
:100B5000F8949BB18D2F80958923DE218D2B8BB945
:100B60002BC00130E1F42D2F2E21F89495B18D2F5B
:100B70008F7380958923922F9F73892B85B988B1B4
:100B8000E22EE294E694E69433E0E322D295D69501
:100B9000D695D370D095D823ED2AE8B80DC0DF7074
:100BA000F89498B18D2F880F880F80958923ED22B6
:100BB000EE0CEE0C8E2988B9789417C06C2F80E269
:100BC00092E00E9443038111B6CFDD2009F4B3CF38
:100BD0006C2F80E292E00E945403019709F4ABCF9E
:100BE00062E08C2F0E942F14A6CFDF91CF911F912E
:100BF0000F91FF90EF90DF900895CF93C82F88302A
:100C000058F5409185035091860321E030E0082E8D
:100C100002C0220F331F0A94E2F7672B49F4209594
:100C2000309524233523309386032093850314C005
:100C3000242B352B30938603209385038091C002AB
:100C400081110AC08C2F0E948A13AC016C2F80E2A4
:100C500092E0CF910C946D02CF910895DB019A013F
:100C60009091C1029C30D0F54091C202682F70E093
:100C7000442369F0E42FF0E0EE53FD4F8081FB0147
:100C8000E153FD4F808341504093C20207C0FB01F6
:100C9000E153FD4F90839F5F9093C102FB01E153AD
:100CA000FD4F1A161B067CF41216130664F44081DD
:100CB00050E0CA01880F991F840F951FAD018B5119
:100CC0009D4F0C942E0E208130E0C901880F991F92
:100CD000820F931F8B519D4F0C94AC0E63E171E01A
:100CE00080E292E00C94FF02CF93DF93C82FD0E014
:100CF000C153DD4F288130E0C901880F991F820F51
:100D0000931F8B519D4F0E94B20E88819091C1021A
:100D1000891306C0882379F081508093C1020BC0EB
:100D2000992349F0E091C202EF5FE093C202F0E044
:100D3000EE53FD4F80838FEF8883DF91CF9108952D
:100D40001F93CF93DF93162FC82FD0E0FE01E458F6
:100D5000FC4F90811923C158DC4F411103C0988189
:100D6000911741F0412F50E0682F80E292E00E94FD
:100D700086021883DF91CF911F910895833020F56B
:100D8000282F30E0F901EE57FC4F6083672BE1F02C
:100D9000F901E458FC4F9081811103C069B16C7F67
:100DA0000FC0813049F463B126B140E4249F900123
:100DB00011246F73622B04C066B16C7366956695DF
:100DC000692341E00C94A006089580918203882352
:100DD00049F069B180917C0368236C7F40E080E03A
:100DE0000E94A00680918303882379F063B186B1C5
:100DF00020E4829FC00111246F73682B80917D03D2
:100E0000682340E081E00E94A0068091840388234B
:100E100059F066B16C736695669580917E03682380
:100E200040E082E00C94A006089510920B038FEF2F
:100E300080930A010895FF920F931F93CF93DF933E
:100E4000182FEB01682F80E292E00E9443038F3756
:100E500009F405C1612F80E292E00E9443038630CD
:100E600041F480910B03882321F0C630D10509F0AD
:100E7000E3C00EEF010F0231B8F4C430D105A1F088
:100E8000E12FF0E0E153FD4F80818C3068F490E079
:100E90009C01220F331F280F391FC9018B519D4F11
:100EA0000E94580F8111CBC0B2EFFB2EF10E87E0EC
:100EB0008F1550F061E070E0C230D10511F060E0B4
:100EC00070E08F2D0E94FD050231E8F4E12FE695D8
:100ED000E695E695812F8770F0E0E458FC4F21E01D
:100EE00030E0082E01C0220F0A94EAF7209719F08B
:100EF000CB30D10521F48081822B808304C02095E2
:100F000080812823208340E050E0612F80E292E03E
:100F10000E945E03CC30D10508F083C0FE01EC5C7A
:100F2000FF4F0C94911787E08F1508F498C0023199
:100F300020F460E0812F0E942F1442E008C00231AB
:100F400008F08DC060E0812F0E942F1440E0612FD7
:100F500080E292E0DF91CF911F910F91FF900C946E
:100F60004A03023108F07BC062E0812F0E942F14F7
:100F70004BE0612F80E292E00E944A0341E050E0A2
:100F8000612F80E292E0DF91CF911F910F91FF904E
:100F90000C945E03023108F062C060E0812F0E9471
:100FA000681461E0812F0E942F1441E0D0CF1330EC
:100FB00049F08BEF810F823028F087EF810F83306B
:100FC00008F04DC061E0812F0E942F1460E070E0B6
:100FD000812F0E94A71343E0BACF023108F03FC02F
:100FE00044E0612F80E292E00E944A03E12FF0E0AA
:100FF000E153FD4F80818F3F31F190E09C01220F42
:10100000331F280F391FC9018B519D4F0E94580F64
:10101000811125C018C08EEE810F823000F546E0A8
:1010200096CF67E271E080E292E0DF91CF911F916D
:101030000F91FF900C94FF020E9415071ACF812F89
:101040000E94740631CF4FEF5FEF6FEF7FEF812F7C
:10105000DF91CF911F910F91FF900C942E06DF919D
:10106000CF911F910F91FF900895CF93C0E08EEE26
:101070008C0F823028F466E070E08C2F0E941B07F2
:10108000CF5FC631A1F781E080930B038DEA93E037
:10109000CF910C94FE0F0F931F93CF93DF9381E0BA
:1010A0008093C00280910B0381110E94150710925A
:1010B000820310927C0310927F031092830310929C
:1010C0007D03109280031092840310927E0310928D
:1010D0008103CFECD2E010E00FEF82EF810F883078
:1010E00018F462E070E006C08EEF810F823128F4C0
:1010F00061E070E0812F0E941B0709931F5F16318A
:1011000061F710928603109285031092C20210922A
:10111000C1021092C002DF91CF911F910F910895EB
:1011200025E042E068E371E080E292E00E949401F1
:101130004DE155E060EE80E292E00E940D034DE546
:1011400055E060E980E292E00E940D034DEF55E02A
:1011500060EC80E292E00E940D034EEB56E060ED01
:1011600080E292E00E940D034BE157E064EF80E2E1
:1011700092E00E940D0342EF54E065EF80E292E0BE
:101180000E940D034EE659E060EF80E292E00E947B
:101190003D034BE458E06FEF80E292E00E9435039C
:1011A00040E051EE60E070E080E292E00E94D704FF
:1011B0000C944B08CF93DF93C5EED2E0CE010E9492
:1011C000120E239683E0C930D807C1F7DF91CF9183
:1011D0000895682F8DEA93E00C94BF0F8DEA93E099
:1011E0000E946F0F0895AF92BF92DF92EF92FF922D
:1011F0000F931F93CF93DF931F92CDB7DEB7F82ED7
:101200005B01D42E6F3F8FEF7807C1F06F2D8DEA11
:1012100093E029830E9408108A2D0E94E908298101
:10122000622F8DEA93E00E94121080910903909141
:101230000A03009729F00E94441302C0A12CB12C8C
:101240004D2D6F2D8DEA93E00E9486100D2D10E03C
:101250008DEA93E00E94670F081719071CF466E9EE
:1012600071E009C08DEA93E00E94670F8017910733
:1012700034F463EB71E080E292E00E94FF02F092AE
:101280000C03A0920D035EE0E52E53E0F52EA12C99
:10129000B12CA016B1069CF042E04D0D2CE033E0DD
:1012A00067E780E292E00F90DF91CF911F910F915D
:1012B000FF90EF90DF90BF90AF900C94B4028DEA56
:1012C00093E00E94670F892B39F30E94EE08F70123
:1012D00081937F01FFEFAF1ABF0ADBCFCF92DF927E
:1012E000EF92FF920F931F93CF93DF93CDB7DEB7AB
:1012F00029970FB6F894DEBF0FBECDBF362F8A01F7
:1013000090E0FC01E956F109E231F10508F027C34C
:10131000E05CFF4F0C949117DA0111962C91922FFB
:10132000987125FF03C06FEC71E057C0FA0180810E
:1013300026FB222720F941E02427983069F158F450
:1013400091110DC3682F8DEA93E039870E94081030
:10135000B2E0FB2E06C09031D1F1983109F470C093
:10136000FEC23985F31678F4F801EF0DF11D918175
:101370008081F0E89F9F8019112439870E94E90835
:10138000F394F394EECF8DEA93E00E94891086E403
:1013900090E00E944413E3C242816381363071F4CD
:1013A000B0E86B9FB0011124640F711DF8019581A5
:1013B0004481F0E89F9F4019112406C030E8639FE4
:1013C000401911246FEF7FEF0E94F308C8C2E0912B
:1013D0000A01E7303CF06FEE71E080E292E00E949B
:1013E000FF02BDC2D80112969C91129713964C91A0
:1013F000663089F4B0E84B9FA0011124490F511DBC
:10140000D80115963C91159714969C91B0E83B9F96
:101410009019112406C0F0E84F9F901911244FEF46
:101420005FEFEF5FE0930A0135E0E302F001112482
:10143000E45BFC4F808352834183938324838FC278
:1014400060910A0116163CF470E0262F332727FD21
:10145000309595E00FC08FEF80930A0180C2949F72
:10146000F001959FF00D1124E45BFC4F408148177B
:1014700039F07F5F472F50E02417350784F770E07D
:1014800015E0872F90E02817390724F1783000F510
:10149000AC014F5F5F4F149FD001159FB00D112419
:1014A000A45BBC4F4C91189FF001199FF00D1124C3
:1014B000E45BFC4F408311968D919C91129792832F
:1014C000818313968C911397838314968C918483D4
:1014D0007F5FD7CF615060930A0141C2DA012C913E
:1014E00011968C91B0E88B9FC0011124820F911D41
:1014F000009721F090930A038093090380910B03D6
:1015000081112DC20E9435082AC2653008F427C215
:10151000FA01F080E180D280C38014818EEF8F0DBC
:10152000823108F01CC2EF2DF0E0E153FD4FE08165
:10153000EC3060F4F0E0CF01880F991F8E0F9F1FF1
:101540008B519D4F0E94580F811105C2F0E81F9FDB
:10155000A00111244C0D511D20E8D29EB001112490
:101560006E0D711D8F2D0E942E0664E070E08F2D90
:101570000E941B07F4C1623008F4F1C1DA012C911A
:1015800011968C91B0E88B9FC0011124820F911DA0
:1015900090930C0180930B01892B09F0E0C181E04D
:1015A00090E090930C0180930B01D9C1623008F454
:1015B000D6C1FA01618170E03230A1F08281F0E899
:1015C0008F9FC0011124682B792B333059F0DA0139
:1015D00013968C9190E090E4899F902D8827112498
:1015E000682B792BF80180810E941D05B8C160EF3E
:1015F00080E292E00E9403036CE680E292E00E94A7
:1016000003031EEF84EF810F883058F462E080E21C
:1016100092E00E9403036AE080E292E00E940303EA
:101620000DC0113059F463E080E292E00E940303A0
:1016300068E080E292E00E94030308C08DEF810F12
:10164000823088F389EF810F833068F3123150F4D0
:1016500064E080E292E00E9403036EE080E292E0A8
:101660000E94030380EF810F823050F466E080E235
:1016700092E00E94030361E080E292E00E94030393
:101680006FE780E292E00E9403031F5F143109F4C8
:1016900042C0123108F0B6CF60E080E292E00E94D2
:1016A000030361E080E292E00E9403036BE080E2CA
:1016B00092E00E94030361E080E292E00E94030353
:1016C00061E080E292E00E94030361E080E292E048
:1016D0000E94030365E780E292E00E94030361E059
:1016E00080E292E00E9403038DCF662309F437C1A4
:1016F000DA011C9160EF80E292E00E9403036EE643
:1017000080E292E00E940303612F80E292E00E9457
:101710000303163130F067EF80E292E00E9403038A
:101720001EC1612F80E292E00E944303682F80E295
:1017300092E00E940303612F80E292E00E94540332
:10174000682F6F7780E292E00E940303612F80E2AE
:1017500092E00E9454038078892B79F0612F80E217
:1017600092E00E945403880F892F881F990B682FDD
:101770006F7780E292E00E940303612F80E292E0A3
:101780000E9454038827907C892B29F2612F80E2E4
:1017900092E00E945403990F880B990F982F881F8D
:1017A000682F6F7780E292E00E940303B4CF60EF6E
:1017B00080E292E00E9403036AE680E292E00E94E7
:1017C000030312EF183010F06FE701C0612F80E2C1
:1017D00092E00E9403031F5F1830A1F79CCFFA012B
:1017E0008381C28080FBC7F8D12CE12CF12CFC2C2A
:1017F000EE24DD24CC249581848190FB87F990E050
:10180000A0E0B0E0DC0199278827C80ED91EEA1EA7
:10181000FB1E9185808590FB87F9C80ED11CE11CC9
:10182000F11C9781868190FB87F990E0A0E0B0E001
:10183000BA2FA92F982F8827C80ED91EEA1EFB1E83
:10184000818161E08130C1F480810E942F1460E0C9
:10185000D8018C910E94681482E090E00E944413A9
:1018600061E0F80180810E946814C6010E9444135F
:1018700060E0D8018C9113C0FA0180810E94681445
:1018800082E090E00E94441360E0D8018C910E94B5
:101890006814C6010E94441361E0F80180810E942F
:1018A0006814D8011B968C911B971A962C9180FB7B
:1018B00027F9822F90E0A0E0B0E0582F442733278B
:1018C0002227F8019585848590FB87F990E0A0E0B8
:1018D000B0E0DC0199278827280F391F4A1F5B1FBA
:1018E0009189808990FB87F9280F311D411D511D79
:1018F0009785868590FB87F990E0A0E0B0E0BA2F4D
:10190000A92F982F8827280F391F4A1F5B1F60E0D7
:1019100080812E8339874F8358870E942F142E8110
:1019200039854F815885D80111966C9111978C910A
:101930000E949E14F801208129839A838B837C83E3
:101940006D839E012F5F3F4F45E065E780E292E0A7
:101950000E94B40204C08F2D0E947406F7CD299610
:101960000FB6F894DEBF0FBECDBFDF91CF911F91B0
:101970000F91FF90EF90DF90CF9008958F929F92FC
:10198000AF92BF92CF92DF92EF92FF920F931F938D
:101990000E94E50680E292E00E94F401892B29F082
:1019A00080E292E00E944904F5CF0E94ED1260931C
:1019B00078037093790380937A0390937B03C090AC
:1019C0007403D0907503E0907603F0907703409114
:1019D0000B0150910C014A01A12CB12C8B019C01EF
:1019E0000C191D092E093F0980169106A206B3069F
:1019F00008F051C0D501C4018C0D9D1DAE1DBF1D49
:101A00008093740390937503A0937603B093770348
:101A100012EF6EE0610F1830D8F480E292E00E947D
:101A200043038230A9F42091850330918603012E6F
:101A300002C0359527950A94E2F720FF09C0812F4F
:101A40000E948A13AC01612F80E292E00E946D0235
:101A50001F5F1830F1F680910A0187FD1CC010E06D
:101A600005E0812F90E020910A01332727FD309572
:101A70002817390784F0089FF001099FF00D112401
:101A8000E45BFC4F618172812481438180810E94EB
:101A9000F3081F5FE6CF1F910F91FF90EF90DF904B
:101AA000CF90BF90AF909F908F9008951F920F920C
:101AB0000FB60F9211242F933F934F935F936F9321
:101AC0007F938F939F93AF93BF93EF93FF938091F7
:101AD000880387FF05C010928500109284001AC009
:101AE00020918803332727FD30958091870390E06C
:101AF000281739077CF480918803992787FD9095F2
:101B0000FC01EE0FFF1FE80FF91FE757FC4F808124
:101B100086FD15C0809188038F5F80938803209194
:101B20008803332727FD30958091870390E028179D
:101B30003907BCF4809188038C305CF112C080912D
:101B40008803992787FD9095FC01EE0FFF1FE80F92
:101B5000F91FE757FC4F808160E08F730E94681483
:101B6000D9CF8091840090918500049680349C495F
:101B700018F480E49CE905C0809184009091850070
:101B8000049690938900809388008FEF8093880358
:101B900038C0209184003091850080918803992776
:101BA00087FD9095FC01EE0FFF1FE80FF91FE75727
:101BB000FC4F81819281820F931F909389008093C3
:101BC000880080918803992787FD9095FC01EE0F8E
:101BD000FF1FE80FF91FE757FC4F808186FF11C0F8
:101BE00080918803992787FD9095FC01EE0FFF1FD8
:101BF000E80FF91FE757FC4F808161E08F730E9467
:101C00006814FF91EF91BF91AF919F918F917F9158
:101C10006F915F914F913F912F910F900FBE0F9059
:101C20001F901895209187032C30A0F431E0320FDB
:101C300030938703FC012083822F90E0FC01EE0F9C
:101C4000FF1FE80FF91FE757FC4F88EB9BE09283DB
:101C5000818308952FEFFC0120830895DF92EF9296
:101C6000FF920F931F93CF93DF93EC01D62E7A014F
:101C7000890188818C3008F066C061E08D2D0E945A
:101C80002F148881A82FB0E0FD01EE0FFF1FEA0F8F
:101C9000FB1FE757FC4F2D2D2F739081907C922BCB
:101CA000908360E272E06E197F0977FF02C06D5F7A
:101CB0007F4F7595679575956795698340E659E0FF
:101CC000401B510B57FF02C04D5F5F4F5595479525
:101CD000559547954A836CE00E9444179CE0899F84
:101CE000B001112420E030E0A901460F571FFA018E
:101CF000EE0FFF1FE40FF51FE757FC4F908196FD95
:101D000016C02F5F3F4F2C30310571F781110FC086
:101D10001092800082E080938100109285001092E2
:101D20008400B19A80916F00826080936F008881F7
:101D300090E0FC01EE0FFF1FE80FF91FE757FC4F83
:101D40008081806480838881DF91CF911F910F9182
:101D5000FF90EF90DF90089520E639E040E252E0F6
:101D60000C942E0EFC01808190E0FC01EE0FFF1F11
:101D7000E80FF91FE757FC4F80818F7B8083089520
:101D8000FC0180818C3070F5918128E830E0291BBE
:101D9000310997FD3395220F331F220F331F62172E
:101DA00073077CF0928128E532E0291B310997FD09
:101DB0003395220F331F220F331F621773070CF462
:101DC0009B0122503109220F331F4FB7F89490E046
:101DD000FC01EE0FFF1FE80FF91FE757FC4F32839E
:101DE00021834FBF08954F925F926F927F92AF927F
:101DF000BF92CF92DF92EF92FF920F931F93CF93F8
:101E0000DF93EC01603282E078070CF040C077FD90
:101E100006C0653B71052CF064EB70E002C060E029
:101E200070E0898128E830E0281B310987FD33956F
:101E3000220F331F220F331F5901CC24B7FCC0944B
:101E4000DC2C882777FD8095982F2A8148E552E081
:101E5000421B510927FD5395440F551F440F551F31
:101E60002A01662457FC6094762C7F926F925F92D1
:101E70004F9214EBE12EF12C00E010E020E030E076
:101E8000A9010E94DC160F900F900F900F90CE01C9
:101E9000DF91CF911F910F91FF90EF90DF90CF9046
:101EA000BF90AF907F906F905F904F900C94C00E5A
:101EB000FC01808190E0FC01EE0FFF1FE80FF91F8D
:101EC000E757FC4F808186FB882780F90895809131
:101ED000DD0390E02091DE03821B9109089520919B
:101EE000DE038091DD03281750F4E22FF0E0E15289
:101EF000FC4F808190E02F5F2093DE0308958FEFE9
:101F00009FEF0895E091DE038091DD03E81730F440
:101F1000F0E0E152FC4F808190E008958FEF9FEF59
:101F200008950895CF92DF92EF92FF920F931F933F
:101F3000CF93DF937C01CB018A012091B903222347
:101F400089F0EB016B01C40ED51ECC15DD0569F0DF
:101F50006991D701ED91FC910190F081E02DC701CD
:101F60000995F3CF642F0E944D11C801DF91CF91E5
:101F70001F910F91FF90EF90DF90CF900895CF9336
:101F8000DF931F92CDB7DEB769832091B903222377
:101F9000D1F02091BA03203240F021E030E0FC0182
:101FA0003383228380E090E015C08091BB03E82F4B
:101FB000F0E0E454FC4F998190838F5F8093BB03E2
:101FC0008093BA0305C061E0CE0101960E944D11D5
:101FD00081E090E00F90DF91CF910895FC01138292
:101FE000128248EE53E060E070E0448355836683DC
:101FF000778384E092E09183808308951092DE03DA
:102000001092DD031092BB031092BA030C9490104F
:1020100081E08093B9036093DC031092BB031092BC
:10202000BA0308950F93062F21E04091BA036CEB99
:1020300073E08091DC030E94F6101092BB031092B3
:10204000BA031092B9030F9108958F929F92AF92A5
:10205000BF92CF92DF92EF92FF920F931F93CF9395
:10206000DF93EC01F62ED42E48015901EE2019F130
:102070000E9408101E2D143008F013E01150B8F023
:10208000E881F98128E0129FB0011124A501940193
:1020900004C056954795379527956A95D2F7CA019A
:1020A000B9010190F081E02DCE010995E7CF60E004
:1020B000CE010E9412104D2D413208F040E22C2D2D
:1020C0006FED73E08F2D0E94AE101092DE038093AF
:1020D000DD03DF91CF911F910F91FF90EF90DF9083
:1020E000CF90BF90AF909F908F900895CF92EF9236
:1020F0000F931F93C22EE12C00E010E098010E9484
:1021000025101F910F91EF90CF90089521E00C942E
:10211000761061E00C9412108DEA93E00C94EE0FAF
:1021200010926C0481E080936A041092690461E06B
:1021300082E10E94681461E083E10E946814E9EB87
:10214000F0E080818E7F808380818D7F808388E432
:102150008093B80085E48093BC000895413208F074
:1021600043C090916C049111FCCF91E090936C046A
:1021700020936A042FEF2093FF0310924404240F4E
:102180002093430490936B0490916B04880F892BE8
:1021900080936B0480916904813061F4109269042A
:1021A00080916B048093BB008091BC0083FDF8CFCD
:1021B00085EC01C085EE8093BC0080916C04813079
:1021C000E1F380914404841710F44091440425E421
:1021D00034E0FB01D9018A2F821B841718F48D91FA
:1021E0008193F9CF842F089580E008950F934132B1
:1021F00008F04AC090916C049111FCCF92E090934A
:102200006C0400936A049FEF9093FF0310924404C0
:1022100040934304FB0165E474E0DB019A2F961BB5
:10222000941718F491919D93F9CF10926B049091AB
:102230006B04880F892B80936B0480916904813033
:1022400061F41092690480916B048093BB008091CB
:10225000BC0083FDF8CF85EC01C085EE8093BC0007
:10226000222321F080916C048230E1F38091FF03FE
:102270008F3F61F08091FF03803251F08091FF0326
:10228000803341F483E007C081E005C080E003C0F3
:1022900082E001C084E00F910895613298F42091AA
:1022A0006C04243089F460932104FC0183E294E0FF
:1022B000DC012A2F281B261718F421912D93F9CF22
:1022C00080E0089581E0089582E0089585ED80938F
:1022D000BC008091BC0084FDFCCF10926C0408957A
:1022E00085EC8093BC0010926C0408951F920F92AD
:1022F0000FB60F9211242F933F934F935F936F93D9
:102300007F938F939F93AF93BF93EF93FF938091AE
:10231000B900887F803609F49EC078F5883209F4C8
:102320005DC090F4803109F456C038F4882309F474
:10233000F5C0883009F44FC0F5C0883109F44EC0AB
:10234000803209F45FC0EEC0803409F46AC058F4EA
:10235000803309F457C0883309F0E4C08093FF0349
:102360000E947011DFC0803509F44FC0883509F430
:102370005DC0883409F0D6C0D3C0883909F4C4C020
:10238000A8F4883709F467C038F4883609F463C0C4
:10239000803709F460C0C6C0883809F4B5C08039F8
:1023A00009F45FC0803809F0BDC05BC0803B09F410
:1023B00083C038F4803A09F466C0883A09F47CC0D6
:1023C000B1C0803C09F4A4C0883C09F4A1C0883B9A
:1023D00009F487C0A7C080916B0410C09091440499
:1023E00080914304981770F5E091440481E08E0FCA
:1023F00080934404F0E0EB5BFB4F80818093BB0053
:1024000085EC83C08093FF038BC0E091440481E09E
:102410008E0F809344048091BB00F0E0EB5BFB4F98
:10242000808390914404809143046BC0E091440404
:1024300081E08E0F809344048091BB00F0E0EB5B61
:10244000FB4F808380916A0481116AC081E0809390
:10245000690484EA5EC083E080936C0410920004F7
:10246000CFCF80910004803208F04EC0E09100048C
:1024700081E08E0F809300048091BB00F0E0EF5F5D
:10248000FB4F8083BDCF0E94701180910004803289
:1024900030F4E0910004F0E0EF5FFB4F10826091B8
:1024A000000470E0E0916504F091660481E094E03E
:1024B00009951092000436C084E080936C04109259
:1024C000220410922104E0916704F09168040995B8
:1024D00080912104811105C081E080932104109234
:1024E0002304E091220481E08E0F80932204F0E027
:1024F000ED5DFB4F80818093BB0090912204809121
:102500002104981708F47CCF85E88093BC000AC0AA
:1025100085EC8093BC0010926C0404C01092FF0301
:102520000E946611FF91EF91BF91AF919F918F91A2
:102530007F916F915F914F913F912F910F900FBEBF
:102540000F901F9018951F920F920FB60F921124A3
:102550002F933F938F939F93AF93BF9380916E047C
:1025600090916F04A0917004B091710430916D044A
:1025700023E0230F2D3720F40196A11DB11D05C0C6
:1025800026E8230F0296A11DB11D20936D048093B0
:102590006E0490936F04A0937004B09371048091C3
:1025A000720490917304A0917404B0917504019623
:1025B000A11DB11D8093720490937304A0937404C1
:1025C000B0937504BF91AF919F918F913F912F91DF
:1025D0000F900FBE0F901F9018952FB7F894609131
:1025E0006E0470916F0480917004909171042FBFFC
:1025F00008953FB7F8948091720490917304A0916C
:102600007404B091750426B5A89B05C02F3F19F03E
:102610000196A11DB11D3FBF6627782F892F9A2FE4
:10262000620F711D811D911D42E0660F771F881F8B
:10263000991F4A95D1F70895CF92DF92EF92FF92BA
:10264000CF93DF936B017C010E94F912EB01C1145F
:10265000D104E104F10489F00E9433170E94F912B9
:102660006C1B7D0B683E734090F381E0C81AD10863
:10267000E108F108C851DC4FEACFDF91CF91FF901C
:10268000EF90DF90CF9008958230910538F0880F59
:10269000991F880F991F05970197F1F7089578946E
:1026A00084B5826084BD84B5816084BD85B5826057
:1026B00085BD85B5816085BDEEE6F0E080818160F5
:1026C0008083E1E8F0E010828081826080838081F5
:1026D00081608083E0E8F0E0808181608083E1EBCD
:1026E000F0E0808184608083E0EBF0E080818160B5
:1026F0008083EAE7F0E0808184608083808182606B
:102700008083808181608083808180688083109253
:10271000C10008958E3008F08E50877020910D0111
:1027200090E4299F90011124822B80937C0080915A
:102730007A00806480937A0080917A0086FDFCCFD5
:10274000809178002091790090E0922B08951F935A
:10275000CF93DF93182FEB0161E00E942F14209795
:1027600011F460E004C0CF3FD10539F461E0812F5E
:10277000DF91CF911F910C946814E12FF0E0EC559C
:10278000FF4FE491E330F9F048F4E130B9F0E23082
:10279000A1F584B5806284BDC8BD34C0E730E9F0DE
:1027A000E83019F1E43049F580918000806280932F
:1027B0008000D0938B00C0938A0024C084B58068C9
:1027C00084BDC7BD1FC08091800080688093800059
:1027D000D0938900C093880015C08091B0008068B4
:1027E0008093B000C093B3000DC08091B0008062B0
:1027F0008093B000C093B40005C0C038D1050CF080
:10280000B5CFAFCFDF91CF911F910895833081F085
:1028100028F4813099F08230A1F008958730A9F032
:102820008830B9F08430D1F4809180008F7D03C06E
:10283000809180008F7780938000089584B58F7792
:1028400002C084B58F7D84BD08958091B0008F77DC
:1028500003C08091B0008F7D8093B0000895CF9326
:10286000DF9390E0FC01E854FF4F2491FC01E45316
:10287000FF4F8491882349F190E0880F991FFC0154
:10288000EC50FF4FA591B49186519F4FFC01C5912B
:10289000D4919FB7611108C0F8948C912095822340
:1028A0008C93888182230AC0623051F4F8948C9111
:1028B000322F309583238C938881822B888304C0A8
:1028C000F8948C91822B8C939FBFDF91CF910895C8
:1028D0000F931F93CF93DF931F92CDB7DEB7282FAF
:1028E00030E0F901EC55FF4F8491F901E854FF4FB6
:1028F0001491F901E453FF4F04910023C9F0882398
:1029000021F069830E9406146981E02FF0E0EE0F48
:10291000FF1FE651FF4FA591B4919FB7F8948C919A
:10292000611103C01095812301C0812B8C939FBF3F
:102930000F90DF91CF911F910F9108950F931F93E7
:10294000762F90E0FC01E854FF4F6491FC01E453C2
:10295000FF4FE4917111762FF0E0EE0FFF1FE05270
:10296000FF4F8591949189019A013F70472F0E94F2
:10297000AD00611571058105910531F06F5F7F4FE5
:102980008F4F9F4F9F7003C060E070E0CB011F919D
:102990000F910895FC01818D228D90E0805C9F4F06
:1029A000821B91098F7399270895FC01918D828D67
:1029B000981731F0828DE80FF11D858D90E0089514
:1029C0008FEF9FEF0895FC01918D828D981761F034
:1029D000828DDF01A80FB11D5D968C91928D9F5F56
:1029E0009F73928F90E008958FEF9FEF089587E691
:1029F00096E1892B49F080E090E0892B29F00E9434
:102A0000671681110C9400000895FC01848DDF018C
:102A1000A80FB11DA35ABF4F2C91848D90E0019651
:102A20008F739927848FA689B7892C93A089B18940
:102A30008C9180648C93938D848D981306C002884A
:102A4000F389E02D80818F7D80830895CF93DF937C
:102A5000EC01888D8823C9F0EA89FB89808185FD96
:102A600005C0A889B9898C9186FD0FC00FB607FCF7
:102A7000F5CF808185FFF2CFA889B9898C9185FF38
:102A8000EDCFCE010E940515E7CFDF91CF910895DC
:102A9000CF92DF92FF920F931F93CF93DF931F92FA
:102AA000CDB7DEB76C0181E0D60158968C9358976C
:102AB0005B969C915B975C968C915C97981307C092
:102AC0005096ED91FC915197808185FD2EC0F601C5
:102AD000038D10E00F5F1F4F0F731127F02EF601CB
:102AE000848DF81211C00FB607FCF9CFD6015096AD
:102AF000ED91FC915197808185FFF1CFC6016983EB
:102B00000E9405156981EBCF838DE80FF11DE35A13
:102B1000FF4F6083D6015B960C935B975296ED91C5
:102B2000FC915397808180620CC0D6015696ED913E
:102B3000FC91579760835096ED91FC91519780815D
:102B40008064808381E090E00F90DF91CF911F91AE
:102B50000F91FF90DF90CF900895BF92CF92DF92B8
:102B6000EF92FF92CF93DF93EC016A017B01B22ECB
:102B7000E889F98982E08083411581EE5807610573
:102B80007105A1F060E079E08DE390E0A701960186
:102B90000E94501721503109410951095695479516
:102BA00037952795211580E1380798F0E889F9894C
:102BB000108260E874E88EE190E0A70196010E941F
:102BC00050172150310941095109569547953795BC
:102BD0002795EC85FD853083EE85FF852083188E53
:102BE000EC89FD89B082EA89FB89808180618083DC
:102BF000EA89FB89808188608083EA89FB898081FA
:102C000080688083EA89FB8980818F7D8083DF9162
:102C1000CF91FF90EF90DF90CF90BF9008951F92DB
:102C20000F920FB60F9211242F938F939F93EF93D0
:102C3000FF93E0918604F09187048081E0918C04F9
:102C4000F0918D0482FD12C0908180918F048F5F7E
:102C50008F7320919004821751F0E0918F04F0E07F
:102C6000EA58FB4F958F80938F0401C08081FF91BC
:102C7000EF919F918F912F910F900FBE0F901F900A
:102C800018951F920F920FB60F9211242F933F9316
:102C90004F935F936F937F938F939F93AF93BF9364
:102CA000EF93FF9386E794E00E940515FF91EF9163
:102CB000BF91AF919F918F917F916F915F914F9154
:102CC0003F912F910F900FBE0F901F90189586E7A0
:102CD00094E00E94CA1421E0892B09F420E0822F9D
:102CE0000895109279041092780488EE93E0A0E0A1
:102CF000B0E080937A0490937B04A0937C04B0931B
:102D00007D0484E192E0909377048093760485ECCF
:102D100090E0909383048093820484EC90E09093FD
:102D200085048093840480EC90E0909387048093E2
:102D3000860481EC90E0909389048093880482EC6F
:102D400090E090938B0480938A0486EC90E09093BB
:102D50008D0480938C0410928F0410929004109232
:102D60009104109292040895CF92DF92EF92FF9215
:102D70000F931F93CF93DF937C016A01EB0100E077
:102D800010E00C151D0571F06991D701ED91FC91D2
:102D90000190F081E02DC7010995892B19F00F5F93
:102DA0001F4FEFCFC801DF91CF911F910F91FF907F
:102DB000EF90DF90CF9008954F925F926F927F9245
:102DC000AF92BF92CF92DF92EF92FF920F931F9339
:102DD000CF93DF93CDB7DEB729013A01621B730BA6
:102DE000840B950B29893A894B895C892A193B09FF
:102DF0004C095D09298B3A8B4B8B5C8B9B01AC0199
:102E000069897A898B899C890E943417E418F508AE
:102E100006091709A80197010E9472172A0D3B1D88
:102E20004C1D5D1DCA01B901DF91CF911F910F911A
:102E3000FF90EF90DF90CF90BF90AF907F906F901A
:102E40005F904F90089508950E944F130E9423179A
:102E50000E949008C7EFD4E10E94BE0C2097E1F3D6
:102E60000E94F714F9CF0895DB018F939F930E947E
:102E70009717BF91AF91A29F800D911DA39F900DB9
:102E8000B29F900D11240895991B79E004C0991FF9
:102E9000961708F0961B881F7A95C9F780950895B4
:102EA000A1E21A2EAA1BBB1BFD010DC0AA1FBB1F4E
:102EB000EE1FFF1FA217B307E407F50720F0A21BC0
:102EC000B30BE40BF50B661F771F881F991F1A942D
:102ED00069F760957095809590959B01AC01BD0157
:102EE000CF010895052E97FB1EF400940E948917C8
:102EF00057FD07D00E94501707FC03D04EF40C94E6
:102F0000891750954095309521953F4F4F4F5F4F12
:102F1000089590958095709561957F4F8F4F9F4F45
:102F20000895EE0FFF1F0590F491E02D09940E9483
:102F3000A217A59F900DB49F900DA49F800D911D89
:102F400011240895A29FB001B39FC001A39F700DEB
:102F5000811D1124911DB29F700D811D1124911DA1
:102F60000895CF93DF938230910510F482E090E0D2
:102F7000E0911505F091160520E030E0A0E0B0E00A
:102F8000309739F14081518148175907B8F04817F7
:102F9000590771F482819381109729F013969C93BD
:102FA0008E9312972CC0909316058093150527C019
:102FB0002115310531F04217530718F0A901DB0143
:102FC00001C0EF019A01BD01DF010280F381E02D14
:102FD000D7CF21153105F9F0281B390B24303105E5
:102FE00080F48A819B816115710521F0FB01938337
:102FF000828304C09093160580931505FE013296D6
:1030000044C0FE01E20FF31F8193919322503109D6
:10301000398328833AC02091130530911405232B5E
:1030200041F4209102013091030130931405209363
:10303000130520910001309101012115310541F462
:103040002DB73EB74091040150910501241B350B6B
:10305000E0911305F0911405E217F307A0F42E1B7D
:103060003F0B2817390778F0AC014E5F5F4F2417EC
:10307000350748F04E0F5F1F50931405409313051A
:103080008193919302C0E0E0F0E0CF01DF91CF9116
:103090000895CF93DF93009709F487C0FC0132971E
:1030A00013821282C0911505D0911605209781F4E4
:1030B00020813181280F391F8091130590911405CB
:1030C0008217930779F5F0931405E09313056DC00B
:1030D000DE0120E030E0AE17BF0750F412964D91AC
:1030E0005C9113979D014115510509F1DA01F3CF68
:1030F000B383A28340815181840F951F8A179B0758
:1031000071F48D919C911197840F951F0296918374
:10311000808312968D919C911397938382832115BE
:10312000310529F4F0931605E09315053EC0D90149
:103130001396FC93EE9312974D915D91A40FB51FDA
:10314000EA17FB0779F480819181840F951F02961D
:10315000D90111969C938E938281938113969C93AF
:103160008E931297E0E0F0E08A819B81009719F03E
:10317000FE01EC01F9CFCE01029628813981820F40
:10318000931F20911305309114052817390769F40E
:10319000309729F4109216051092150502C013827B
:1031A0001282D0931405C0931305DF91CF91089537
:1031B000FB01DC014150504048F001900D9200208D
:1031C000C9F701C01D9241505040E0F70895FC013D
:1031D00081E090E00190061609F4CF010020D1F7BC
:1031E00001970895FB0151915523A9F0BF01DC011E
:1031F0004D9145174111E1F759F4CD01019000209F
:1032000049F04D9140154111C9F3FB014111EFCF38
:0C32100081E090E001970895F894FFCF52
:10321C0000001705800001000000FF1300012E6361
:10322C007070004D617820736572766F73206174D5
:10323C0074616368656400556E6B6E6F776E207099
:10324C00696E206D6F6465002F55736572732F6105
:10325C006A6669736865722F6465762F73696D7021
:10326C006C65626F742F6669726D776172652F621F
:10327C0075696C642F7374616E646172642F736909
:10328C006D706C65626F745F6669726D6174612FCD
:10329C0073696D706C65626F745F6669726D617471
:1032AC00612E696E6F004932433A20546F6F206D66
:1032BC00616E7920627974657320726563656976D5
:1032CC006564004932433A20546F6F20666577205D
:1032DC006279746573207265636569766564003123
:1032EC00302D6269742061646472657373696E67F2
:1032FC00206E6F7420737570706F727465640074D7
:10330C006F6F206D616E79207175657269657300E0
:10331C0000000000BF0F920F670F6F0F820F910F0D
:10332C00000000004815B416CA14E314D514261571
:00000001FF
